:040000000203D332F2
:03000B000203DA13
:0300110002000EDC
:03000E0002035B8F
:20001400E52160FC20E7F91521C2AFE52260FC20E7F915227458B52308752331755A308035
:2000340006752431755A31853F250522D2AF7582071205DCC2AFE52260FC20E7F9152274DB
:2000540031B523057523588003752458853F4A0522D2AF05210204FCE52160FC20E7F915C5
:2000740021C2AFE52260FC20E7F915227458B52308752332755B308006752432755B3185F3
:200094003F260522D2AF7582061205DCC2AFE52260FC20E7F915227432B523057523588051
:2000B40003752458853F4B0522D2AF05210204FCE52160FC20E7F91521C2AFE52260FC20CD
:2000D400E7F915227458B52308752333755C308006752433755C31853F270522D2AF75829F
:2000F400051205DCC2AFE52260FC20E7F915227433B523057523588003752458853F4C05EC
:2001140022D2AF05210204FCE52160FC20E7F91521C2AFE52260FC20E7F915227458B523B9
:2001340008752334755D308006752434755D31853F280522D2AF7582071205DCC2AFE52282
:2001540060FC20E7F915227434B523057523588003752458853F4D0522D2AF05210204FC2E
:20017400E52160FC20E7F91521C2AFE52260FC20E7F915227458B52308752335755E3080CC
:2001940006752435755E31853F290522D2AF7582031205DCC2AFE52260FC20E7F915227472
:2001B40035B523057523588003752458853F4E0522D2AF05210204FC438920758DFA7598DE
:2001D40050D28EC2AF7F00BF050040030203587E00BE050050118E82758307E493F5991041
:2001F400990280FB0E80EA8F0674312EF59910990280FB7E00BE0B00500FEE90071093F57E
:200214009910990280FB0E80ECEF245AF9879910990280FB7E00BE1000500FEE90073093F2
:20023400F59910990280FB0E80ECEF2425F9E724F65026EF2425F987067D0075080A8D097C
:200254008E828D83C0071206A4AD82AE83D00774302DF59910990280FBEF2425F987067DF0
:200274000075080A8D098E828D83C00712066EAD82D00774302DF59910990280FB7E00BE19
:200294000500500FEE90072093F59910990280FB0E80EC7E00BE050050118E82758307E4EB
:2002B40093F59910990280FB0E80EA8F0674312EF59910990280FB7E00BE0700500FEE902F
:2002D400074093F59910990280FB0E80EC7E00BE1000500FEE90073093F59910990280FB5B
:2002F4000E80ECEF244AF9E724F65026EF244AF987067D0075080A8D098E828D83C007122D
:2003140006A4AD82AE83D00774302DF59910990280FBEF244AF987067D0075080A8D098E58
:20033400828D83C00712066EAD82AE83D00774302DF59910990280FB75990A10990280FBD0
:200354000F0201DBD2AF22C2AF752458752358752102752201D2AF90001412042275820221
:200374001205DC740FB5350280F390006C1204227582021205DC740FB5350280F39000C43E
:200394001204227582021205DC740FB5350280F390011C1204227582021205DC740FB53505
:2003B4000280F39001741204227582021205DC7458B523F57458B524F01201CC0204FC027A
:0A03D40003DE222222220205653218
:050700004361722000BE
:15071000207061726B732061742073706F742000616E64200045
:170730002061742074696D6520756E69743A20002065786974730067
:2003DE00753E00753F0075890075A882D28C753500753A01753B02753C04753D08752F007E
:2003FE00752E00752D00752C0090035B120422858234E5342430F98781D0D0D083D082D015
:20041E00F0D0E022740FB535047582FF22C2AF75370074FC25374041AF378FF005F07F012F
:20043E007E008006EF2FFFEE33FED5F0F7AC357D00EC5207ED5206EF4E7017AF378FF0058C
:20045E00F07401800225E0D5F0FBFF42358537368007E53704F53780B9858138E537C454EC
:20047E00F0FF243FF581C082C0837400C0E0C0E0C0E0C0E0E537FFC40354F8F539C039E5E3
:20049E00362430F8A681853881D2AF85368222D20010AF02C200C0E0C0F0C082C083C0D0BD
:2004BE00E5342430F8A6817403B534067E007F008009AD340DEDFE3395E0FF8E34E5342427
:2004DE003AF9E7FF553560DFE5342430F98781D0D0D083D082D0F0D0E0A20092AF22C2AF83
:2004FE007400C0E0C0E0C0E0C0E0C0E0C0E0C0E0C0E0E5342430F87600AF348FF005F074C4
:20051E0001800225E0D5F0FBF4FF5235E535700280FE7403B534067E007F008009AD340D17
:20053E00EDFE3395E0FF8E34E534243AF9E7FF553560DFE5342430F98781D0D0D083D08277
:20055E00D0F0D0E0D2AF22C2AFC0E0C0F0C082C083C0D0E5342430F8A68189E08AF08B8218
:20057E008C838D378E388F397403B534067E007F008009AD340DEDFE3395E0FF8E34E534B5
:20059E00243AF9E7FF553560DFE53E04F53E7404B53E08753E00E53F04F53FA9E0AAF0AB8D
:2005BE0082AC83AD37AE38AF39E5342430F98781D0D0D083D082D0F0D0E0D2AF3222AF8291
:1A05DE00E534242CF9EF253FF7E534242CF9E7B53FF7E534242CF87600222A
:2005F800E508450960467A01E50825E0F508E509334012F509E5829508E583950940030AD0
:2006180080E6C3E50913F509E50813F508C3E5829508F5F0E58395094005F58385F082C374
:0D063800E50913F509E50813F508DAE122DC
:200645007A10E4FBFCE58225E0F582E58333F583EB33FBEC33FCEB9508F5F0EC95094006C9
:09066500FCABF0438201DADD2256
:20066E00C2D5E58330E70DD2D5E4C39582F582E49583F583E50930E70BE4C39508F508E4C4
:16068E009509F5091205F830D50BE4C39582F582E49583F58322D0
:2006A400C2D5E58330E70DD2D5E4C39582F582E49583F583E50930E70DB2D5E4C39508F5F1
:1806C40008E49509F50912064530D50BE4C39582F582E49583F583225E
:00000001FF
